:100000000C94B2110C946AA40C943FA40C9414A404
:100010000C94E9A30C94BEA30C9493A30C9468A332
:100020000C943DA30C94E3110C94E3110C94E31194
:100030000C94E3110C94DAA40C94E3110C94E311E6
:100040000C94E3110C94E3110C94E3110C94E31160
:100050000C94E3110C94E3110C94E3110C94F3A2AF
:100060000C94E3110C9480210C9456210C94E31110
:100070000C94E3110C94E3110C94E3110C94E31130
:100080000C94E3110C94E3110C94E3110C94E31120
:100090000C94E3110C94E3110C94E3110C94C4251B
:1000A0000C94E3110C94E3110C94E3110C94E31100
:1000B0000C94E3110C94E3110C94E3110C94E311F0
:1000C0000C9483600C94E3110C94E3110C94E311F1
:1000D0000C94E3110C94E3110C94E3110C94E311D0
:1000E0000C94E3110C945C490C94CE620C944D1664
:1000F0000C94086B0C94D9170C9405140C94B16CE7
:100100000C945E1A0C9460490C946D490C944A1A34
:100110000C949F8E0C948D550C945E490C948A50CF
:100120000C94EB140C9428780C944A150C940663E8
:100130000C94BD6D0C9422340C940F780C942B16F7
:100140000C9436340C94C18E0C9456190C948F6B0D
:100150000C94B6180C94D8620C94EC120C94F251D6
:100160000C94F83F0C9454670C9428370C942F4A45
:100170000C94774D0C94D48E0C947E6B0C94D61505
:100180000C944C6B0C94B78E0C9465630C943B18D8
:100190000C942E650C94F34C0C9432150C941D6445
:1001A0000C94983D0C9496430C94E2620C94237842
:1001B0000C943F150C945C140C9409650C94D04F6E
:1001C0000C94D54B0C944E120C94F4110C94923266
:1001D0000C94B41E0C9447630C940B510C94905BDC
:1001E0000C9416120C94CA410C9408120C94866B51
:1001F0000C9450400C940C130C94D5390C94B317F8
:100200000C94CF130C9430620C94494C0C94084C11
:100210000C943D630C94601A0C945A3C0C94D714C3
:100220000C9406670C94EDAA0C94C1130C94B54180
:100230000C9420470C94F4500C94A6620C94BD8E40
:100240000C94C58E0C944A160C94EA140C943E49F6
:100250000C94BB120C9469370C949B120C941A28C2
:100260000C94C8610C94D73F0C942C150C946451D9
:100270000C942F160C94FB4D0C9475150C9439CDE1
:100280000C94874A0C94CA8E0C94DC130C94325054
:100290000C94356B0C94F5460C94F2620C94CE6978
:1002A0000C942D780C9404140C944C6E0C941F63D5
:1002B0000C94FC620C94C4390C94BF620C94476A91
:1002C0000C9456490C94DC6E0C94C5130C945C6E23
:1002D0000C94D38E0C94EB610C94B94D0C94A84CF7
:1002E0000C94054B0C949A6E0C94A16C0C94336393
:1002F0000C9455150C9401620C9493510C94312973
:100300000C943C690C948F460C94641A0C94405CD9
:100310000C9470130C9448680C945A650C94DF1E6E
:100320000C94988E0C941E4F0C9485520C94A98EAC
:100330000C945A6B0C945C610C9428140C94355AF0
:100340000C94B2140C9443160C942B660C943C152C
:100350000C9406140C949C4F0C94F84E0C942B4364
:100360000C94AE4E0C9486130C94FB640C949C8EEF
:100370000C94C51D0C945A490C94621A0C94A01349
:100380000C9410630C94354D0C94793D0C94EF193A
:100390000C94CB8E0C9439400C94EA320C948C1A49
:1003A0000C94AE510C94B1580C94E5110C9451631B
:1003B0000C94908E0C942D500C948A130C94416BD9
:1003C0000C9429630C946B6C0C9419780C94D91BC5
:1003D0000C94F2390C942F140C941E150C94694F44
:1003E0000C94C8500C94EA6E0C946A500C9415143A
:1003F0000C94A13C0C946F130C943E190C94C234D1
:100400000C94F36D0C9471290C94894C0C94FB366C
:100410000C946A670C94B38E0C9449180C94C462C3
:100420000C94724B0C94D1130C9440340C945235B0
:100430000C9457630C94A54B0C943D4E0C94B93B13
:100440000C9458490C9426150C94948E0C94B71E59
:100450000C945F460C940B6C0C946D4E0C94E91448
:100460000C9465430C94A58E0C94EA620C948A8ECD
:100470000C947C410C942D4F0C94BA680C94193C4C
:100480000C9435330C94614A0C944C4F0C941E78A8
:100490000C94CE540C94B5670C9448520C942F15C0
:1004A0000C94CF8E0C945A410C94EB200C94F8AA27
:1004B0000C9439510C94BA460C94AB130C94BD3F78
:1004C0000C940D430C9403410C94693C0C94291535
:1004D0000C946F6B0C9433160C94D4130C94C23D93
:1004E0000C9400680C94036E0C94AF8E0C941478EA
:1004F0000C94E46C0C949C320C941C130C94BD2052
:100500006364696E6F70737578585B004950206141
:1005100075746F6D617469636F00417474656E64A6
:100520006F20444843502E2E2E004361766F207377
:10053000636F6C6C656761746F00536869656C64A8
:10054000206E6F6E2074726F76617461004E0400CD
:100550000F00000000855200004D010001BD6DC577
:100560001DCE54641A46020003F36D3B188D55EB03
:10057000204C04020B036E4918B158B3174B030209
:10058000074C6EB618355AD9174F0002000000000C
:10059000001A280000490202035C6E3E19905B00BD
:1005A000004A04020E9A6E5619405C751548000206
:1005B00000EA6EEF19DF1E000047000200DC6E4A01
:1005C0001A8C1A00004E657373756E2044484350B0
:1005D0003A2075736F20756E20696E646972697A4E
:1005E0007A6F206175746F6D617469636F20313645
:1005F000392E3235342E782E790052696368696558
:1006000073746120444843502E2E2E0049502066BA
:100610006973736F002D2D2D2D2D2D2D2D2D2D2D2D
:100620002D2D2D2D2D2D2D2D2D2D2D2D2D2D2D2DFA
:100630002D2D2D2D2D005363726976692068656C10
:100640007020706572206C27656C656E636F206426
:10065000656920636F6D616E64690052414D206C65
:1006600069626572613A200020626C6F6363686939
:100670002C2053544F50290020626C6F63636869CB
:100680002C2052554E2900202800617373656E742A
:1006900065202870726F6772616D6D6120696E20D0
:1006A000454550524F4D290070726573656E7465F3
:1006B0000050726F6772616D6D613A200053443A69
:1006C000200020286175746F6D617469636F2C2040
:1006D00073656E7A612044484350290020284448BD
:1006E000435029002028666973736F29004D4143E8
:1006F0003A2000286E657373756E6F290049503A71
:100700002000636F6C6C656761746100617474656F
:100710006E646F20696C2044484350006361766FBB
:100720002073636F6C6C656761746F20286E6573EE
:1007300073756E20636F6C6C6567616D656E746F49
:100740002073756C6C6120706F727461290073681E
:1007500069656C642045746865726E6574206E6F9F
:100760006E2074726F766174612028636F6E74728C
:100770006F6C6C6120616C696D656E74617A696F14
:100780006E65206520636F6E6E6574746F72652090
:10079000494353502900526574653A20002E6C6F0E
:1007A00063616C00417264754C6561726E20322E1B
:1007B0003020286D6567612920206E6F6D653A20B5
:1007C000002D2D2D2D2D2D2D2D2D2D2D2D2D2D2D86
:1007D0002D2D2D2D2D2D2D2D2D2D2D2D2D2D2D2D49
:1007E0002D002C2000293A200020287469706F20E9
:1007F000002020626C6F63636F200020206E6573A1
:1008000073756E2070696E20757361746F00203D82
:10081000200020200053544F50006E657373756E96
:100820002070726F6772616D6D610052554E0020CD
:1008300075730020206369636C6F20005B696F5DD6
:10084000200025752E25752E25752E2575256E0003
:100850004C6120726574652072697061727469728E
:100860006127207175616E646F20696C2063617609
:100870006F20652720636F6C6C656761746F006122
:100880006565696F75DF4541808182838485864512
:1008900041E0E8E9ECF2F9B0C8C025752E25752EC7
:1008A00025752E257500257520626C6F6363686958
:1008B000202053443A25730025730025730000253A
:1008C000730025732E6C6F63616C00417264754C0C
:1008D0006561726E20202020202020202573005288
:1008E000657465204F4B0025732573002573002523
:1008F0007300010001000201000003000100040177
:1009000000000500010006000100070001000801C9
:1009100000000A0401000B0401000C0401000D0496
:1009200001000E0401000F0101001002020011017C
:100930000100120201001402020215020202160254
:10094000020217030107180402081E0201031F0216
:1009500001032001010021010100220301062301FE
:1009600001002804000C2B040108320001003302AE
:1009700000033C0402083D04020E2904000C2A0373
:1009800000073E0402003F0402004004020041252B
:10099000750044257500696C2070696E20412064E3
:1009A0006576652065737365726520322C20332C63
:1009B000203138206F203139005452494720656476
:1009C000204543484F206465766F6E6F20657373D2
:1009D0006572652070696E2064697665727369005E
:1009E000646120312061203630204C45440070691C
:1009F0006E2072697365727661746F0070696E2023
:100A00006E6F6E2061737365676E61746F20616CC9
:100A1000206D6F64756C6F0070696E206E6F6E2054
:100A20007363656C746F00000000000000005F00DD
:100A3000000007000700147F147F14242A7F2A1265
:100A4000231308646236495620500008070300004B
:100A50001C2241000041221C002A1C7F1C2A08087D
:100A60003E08080080703000080808080800006090
:100A7000600020100804023E5149453E00427F407C
:100A80000072494949462141494D331814127F10DB
:100A900027454545393C4A49493141211109073625
:100AA00049494936464949291E00001400000040C2
:100AB00034000000081422411414141414004122BC
:100AC000140802015909063E415D594E7C1211126B
:100AD0007C7F494949363E414141227F4141413E67
:100AE0007F494949417F090909013E414151737FCD
:100AF0000808087F00417F41002040413F017F08F6
:100B00001422417F404040407F021C027F7F040846
:100B1000107F3E4141413E7F090909063E41512176
:100B20005E7F09192946264949493203017F01039D
:100B30003F4040403F1F2040201F3F4038403F6320
:100B40001408146303047804036159494D43007F7A
:100B50004141410204081020004141417F0402014B
:100B600002044040404040000307080020545478ED
:100B7000407F284444383844444428384444287F3B
:100B8000385454541800087E090218A4A49C787F95
:100B90000804047800447D40002040403D007F1060
:100BA00028440000417F40007C047804787C0804DD
:100BB00004783844444438FC182424181824241891
:100BC000FC7C08040408485454542404043F44247E
:100BD0003C4040207C1C2040201C3C4030403C4499
:100BE000281028444C9090907C4464544C44000855
:100BF0003641000000770000004136080002010283
:100C00000402215554784039555454583854545599
:100C1000590001457C40324A4848303A42402078E9
:100C2000060F090F06436F6E6E656374696F6E3A47
:100C300020636C6F73650D0A00436F6E74656E748C
:100C40002D547970653A20746578742F68746D6CD2
:100C50003B20636861727365743D7574662D380D51
:100C60000A436F6E74656E742D456E636F64696EB2
:100C7000673A20677A69700D0A436F6E74656E7407
:100C80002D4C656E6774683A2000323030204F4B2F
:100C900000333034204E6F74204D6F64696669658F
:100CA000640043616368652D436F6E74726F6C3AC4
:100CB000206E6F2D636163686500455461673A205B
:100CC0002200485454502F312E3120007B226F6B6C
:100CD000223A747275657D006170706C696361742D
:100CE000696F6E2F6A736F6E007B226F6B223A669C
:100CF000616C73652C22657272223A006170706CAF
:100D000069636174696F6E2F6A736F6E002C226C59
:100D1000656E223A002C226E223A007B226E616DB3
:100D200065223A006E756C6C002F50422F532530AF
:100D300032752E504200496C2050494E2064657631
:100D40006520617665726520342D3820636172619B
:100D50007474657269004E6F6D653A20736F6C6FC5
:100D6000206C6574746572652C206E756D65726992
:100D70002065202D004E6F6D65206E6F6E207661B0
:100D80006C69646F00536572766F6E6F20362070E9
:100D9000696E20706572206C274C43440050696E68
:100DA000204C4344206E6F6E2076616C69646F0046
:100DB000506172616D6574726F206E6F6E20766126
:100DC0006C69646F006565005363686564612053F6
:100DD0004420617373656E746500736400506172C2
:100DE000616D6574726F206D616E63616E74650014
:100DF000536372697474757261206E6F6E207269CC
:100E0000757363697461002F504C432F2573004440
:100E1000696D656E73696F6E65206E6F6E207661A9
:100E20006C696461004E6F6D65206E6F6E20766137
:100E30006C69646F00494E4445582E56455200492E
:100E40004E4445582E475A005363686564612053E9
:100E50004420617373656E7465007B226F6B223A68
:100E6000747275652C2272656D6F766564223A0026
:100E70006170706C69636174696F6E2F6A736F6EF5
:100E8000002F50422F25730053636865646120531F
:100E90004420617373656E7465007B226F6B223A28
:100EA000747275652C226472223A006170706C69EC
:100EB000636174696F6E2F6A736F6E00536372693A
:100EC0007474757261206E6F6E20726975736369D8
:100ED00074610044696D656E73696F6E65206E6F35
:100EE0006E2076616C696461005365727665206C72
:100EF00061206D6963726F53442070657220636F67
:100F00006E6469766964657265206C6120626F7ACF
:100F10007A6100536372697474757261206E6F6ECA
:100F20002072697573636974610044696D656E73DD
:100F3000696F6E65206E6F6E2076616C696461000A
:100F4000536C6F74206E6F6E2076616C69646F00F5
:100F500053636865646120534420617373656E74E4
:100F60006500526963657A696F6E65206E6F6E20E9
:100F700072697573636974610044696D656E736944
:100F80006F6E65206E6F6E2076616C696461005DC6
:100F90007D007B22666F756E64223A5B0061707023
:100FA0006C69636174696F6E2F6A736F6E00536C46
:100FB0006F742076756F746F00536C6F74206E6F52
:100FC0006E2076616C69646F0053636865646120AC
:100FD000534420617373656E7465004E6573737559
:100FE0006E6120626F7A7A61004E657373756E610F
:100FF00020626F7A7A61002C2265654D6178223A11
:10100000002C226565223A006E756C6C00736400DA
:101010006565006E6F6E6500222C227364223A00B3
:101020007B22616374223A22006170706C69636193
:1010300074696F6E2F6A736F6E005D7D002C226C79
:10104000656E223A002C226E616D65223A007B2289
:101050006E223A002F50422F2573002C22736C6FA2
:101060007473223A5B007B227364223A00617070D1
:101070006C69636174696F6E2F6A736F6E005D7D5A
:10108000005D2C2261223A5B005D2C227067223ABF
:101090005B00222C226D77223A5B00222C226D62AB
:1010A000223A22005D2C2264223A22002C2276224F
:1010B0003A5B002C226472223A002C22736F223A8F
:1010C000002C22657272223A002C226C6364223A50
:1010D000002C226F6C6564223A002C226D656D2213
:1010E0003A002C227570223A002C22736D6178220E
:1010F0003A002C227363616E223A002C226C642227
:101100003A002C2272756E223A007B22726576229A
:101110003A006170706C69636174696F6E2F6A73F5
:101120006F6E00B905AD05A105950589057D0571B1
:1011300005650559054D055D7D007D2C22726573A1
:10114000223A5B005D2C226F6B223A002C22702227
:101150003A5B002C2272223A002C2263223A002CA5
:101160002261223A007D2C226C6364223A7B227435
:10117000223A002C226F6B223A002C2274223A0071
:101180002C226F6C6564223A7B2261223A00313254
:101190003334002C2270696E44656661756C74226C
:1011A0003A002C227076223A002C226E7376223A74
:1011B000002C226E6D77223A002C226E6D62223A4C
:1011C000002C226661223A002C226E70223A002CFA
:1011D000226D6F6473223A002C22766572223A00E7
:1011E0002C226D617854657874223A002C226D614E
:1011F00078496D616765223A002C226D6178426CF6
:101200006F636B73223A002C22657272223A002CB3
:10121000226C64223A002C2272756E223A002C2233
:101220006472223A002C22726576223A002C2273D4
:1012300064223A002C226E6574223A00222C226924
:1012400070223A002C226D6163223A22007B2266D2
:1012500077223A22322E30222C22626F617264226F
:101260003A226D656761222C22686F7374223A00FE
:101270006170706C69636174696F6E2F6A736F6EF1
:10128000004F726F6C6F67696F20525443206E6F0E
:101290006E2074726F7661746F00506172616D655B
:1012A000747269206D616E63616E7469004E6F6E59
:1012B0002074726F7661746F002F6170692F727481
:1012C00063002F6170692F636F6E666967005061FC
:1012D00072616D6574726F206D616E63616E7465AD
:1012E000002F6170692F72756E00536C6F74206EE1
:1012F0006F6E2076616C69646F002F6170692F7367
:101300006C6F7464656C00436F706961206E6F6E02
:101310002072697573636974613A2070726F6772C5
:10132000616D6D6120617373656E7465206F2070EF
:10133000697527206772616E64652064656C6C61F5
:1013400020454550524F4D002F6170692F656563F0
:101350006F7079002F6170692F6572617365002F5E
:101360006170692F66696C65002F6170692F736405
:1013700077697065002F6170692F6472616674000F
:101380002F6170692F736C6F74002F6170692F70FB
:10139000726F6772616D0050494E20646F63656EB5
:1013A00074652065727261746F0050696E206E6F93
:1013B0006E20636F6D616E646162696C65002F61A0
:1013C00070692F70696E73657400426C6F63636F30
:1013D000206E6F6E2076616C69646F002F6170699A
:1013E0002F76736574007B226F6B223A66616C7393
:1013F000657D007B226F6B223A747275657D00619A
:1014000070706C69636174696F6E2F6A736F6E00C0
:101410002F6170692F61757468004E657373756E06
:101420002070726F6772616D6D61006565002F617C
:1014300070692F70726F6772616D004F726F6C6FA1
:1014400067696F20525443206E6F6E2074726F76FE
:1014500061746F007B226F6B223A747275652C2267
:1014600074223A223230253032752D253032752DD6
:101470002530327520253032753A253032753A25BF
:10148000303275222C22646F77223A25757D0061F7
:1014900070706C69636174696F6E2F6A736F6E0030
:1014A0002F6170692F727463002F6170692F7363ED
:1014B000616E002F6170692F736C6F74002F617003
:1014C000692F6472616674002F6170692F73746F85
:1014D000726564002F6170692F736C6F7473002FD5
:1014E0006170692F6C697665002F6170692F696E74
:1014F000666F002F00504F53540047455400496613
:101500002D4E6F6E652D4D617463683A00582D50F5
:10151000696E3A00436F6E74656E742D4C656E672C
:1015200074683A007C3C3E5E2B3D3F2F5B5D3B2C5C
:101530002A225C0002617264756C6561726E2D25F1
:1015400030327825303278003132333400000000F8
:10155000000000000000000000000000000000008B
:10156000808080C0C0C0E0E0E0F0F0F0F8F8F8F073
:10157000F0F0E0E0C0C0C08080800000000000000B
:10158000000000000000000000000000000000005B
:10159000000000000000000000000000000000004B
:1015A000000000000000000000000000000000003B
:1015B000000000000000000000000000000000002B
:1015C000000000000000000000000000000000001B
:1015D000000000001818183C3C3C7E7E7EFFFFFF98
:1015E000FFFFFFFFFFFFFFFFFFFFFFFFFFFFFFFF0B
:1015F000FFFFFFFFFFFFFFFFFFFFFFFFFF7E7E7E7E
:101600003C3C3C181818F0F00000000000000000FE
:101610000000000000000000000080F0F070F0F01A
:10162000C0000000008080808000808000000000FA
:101630008080800000F8F8F80000808080000000C2
:10164000008080800000000000000000000000001A
:10165000000000000000000000000000000000008A
:101660007D79F9FBF3F3F7E7E7EFCFDFDFDFDFCFDC
:10167000EFEFE7F7F3F3FBF9797D000000000000DE
:10168000000000181818E7E71818180000000000FC
:101690000000000000000080F0FEFF1F1B18191F53
:1016A0007FFEF0C000FFFFFFFF01010100003E7F51
:1016B000FFE3C14177FFFFFF00003F7FFFE0C04035
:1016C00070FFFFFF000000000000000000000000AD
:1016D00000000000000000000080E0F0F0F8F8F8E2
:1016E0007878787878787979F9F9F9F9F9F9F9F970
:1016F000F9F97979787878787878F8F8F8F0F0E08E
:10170000800000F0F0303F3F30F0F00000000000BB
:1017100000000000C0C0C0C00000000000000000C9
:1017200000000000000000000000000000000000B9
:1017300000000000000000000000000000000000A9
:101740000000000000000000000000000000000099
:101750000000007CFEFEFEFEFEFFFFFFFFFFFF001D
:101760000000003C3E3E3E3E00FFFFFFFFFFFFFF4C
:10177000FF000000003C3E3E3E3E00FFFFFFFFFF3B
:10178000FFE0E0E7C70606060607070000000000C6
:1017900000000000FFFFFFFF00000000000000F855
:1017A000FCFEB636363E3EBC3000E6F6F63636B6C1
:1017B000FEFEFC000000FEFEFEFE04060600FEFE2D
:1017C000FEFE04060EFEFCF8000000000000000013
:1017D000000000000000000000FFFFFFFFFFFFFE11
:1017E000FCFCFCCC8C1C3C7C7E7F7F3FFFFF3F7F62
:1017F0007F7E7C3C1C8CCCFCFCFCFEFFFFFFFFFFD3
:10180000FF1F1F1F0F03000000000000000000006A
:10181000000000202323232323232323232020200D
:101820002123232323232321202021232323232196
:10183000232323202020232323232020202023238D
:101840002323202020232323202000000000000049
:101850000000000000000000000F3F7F7FFFFFFF3F
:10186000FFFFFFFFFFFFFFFEFEFCFCF0FFFFF0FCB1
:10187000FCFEFEFFFFFFFFFFFFFFFFFFFF7F7F3F3D
:101880000F00000000000000000000000000000049
:101890000000000000FCFCFCF8F8F8F8FCFCFCFC84
:1018A000FC00000000002020202020FC0000FC2084
:1018B0002020202000000000000000FE02FA8A8A9A
:1018C0008AFA02FE00000000000000000000000094
:1018D0000000000000000000000000000000000008
:1018E00000000000000000000000000000000000F8
:1018F00000000000000000000000000000000000E8
:1019000000000000000000000000000000000000D7
:1019100000000000000101010303030301010101B4
:1019200001000000000000000000000100000100B4
:10193000000000000000000000000003020202029C
:1019400002020203000000000000000000455252A5
:101950004F52453A20736869656C64204574686528
:10196000726E6574206E6F6E2074726F7661746132
:10197000004361766F20646920726574652073632B
:101980006F6C6C656761746F00222C2272756E2219
:101990003A00222C2270726F67223A2200222C22F7
:1019A0006970223A22007B22686F7374223A220007
:1019B0005269636572636120554450206461200060
:1019C000504C433F00202053442E626567696E20CF
:1019D0006E6F6E20726975736369746F0020206D7D
:1019E0006F6E74617461206F726100204B423A2007
:1019F0004F4B002C20636C757374657220646120FA
:101A000000202046415400202066696C65207379CF
:101A10007374656D206E6F6E206C656767696269AF
:101A20006C653A20736572766520464154313620E4
:101A30006F20464154333220286E6F6E2065784601
:101A400041542F4E544653292C207072696D6120E9
:101A500070617274697A696F6E6500204D42002C66
:101A60002000726973706F6E64652C207469706FEA
:101A70002000293A20696E7365726974612062657D
:101A80006E653F20636F6E74617474692070756C4D
:101A90006974693F006C6120736368656461206EDE
:101AA0006F6E20726973706F6E6465202865727244
:101AB0006F726520307800293A20006D6963726F7B
:101AC00053442028435320737520440020286E651A
:101AD0007373756E612073636865646129002028E3
:101AE0007363686564612070726573656E746529DF
:101AF0000070726F7661207261706964613A207261
:101B00006973706F73746120307800436F6D616E1C
:101B100064693A0A2020696E666F20202020202008
:101B2000202020202020202020737461746F2064E6
:101B3000656C6C61207363686564610A202073645E
:101B40002020202020202020202020202020202095
:101B500020646961676E6F73692064656C6C6120D5
:101B60006D6963726F53440A202072756E202F20B6
:101B700073746F7020202020202020202061767632
:101B80006961202F206665726D6120696C2070721A
:101B90006F6772616D6D610A2020696F20202020BF
:101BA00020202020202020202020202020696E6757
:101BB00072657373692C2075736369746520652081
:101BC00076616C6F72692064656920626C6F636313
:101BD00068692028696F206F6E202F20696F206F41
:101BE00066663A206F676E69207365636F6E646F17
:101BF000290A20206970206468637020202020203A
:101C000020202020202020696E646972697A7A6F12
:101C10002064616C20444843500A202069702041B0
:101C2000204D204720202020202020202020204937
:101C30005020666973736F2C2065732E20697020A5
:101C40003139322E3136382E312E3530203235357D
:101C50002E3235352E3235352E30203139322E3177
:101C600036382E312E310A202070696E207265734D
:101C700065742020202020202020202050494E2044
:101C8000646F63656E7465203D20313233340A2001
:101C9000206D61632078783A78783A78783A787865
:101CA0003A78783A7878202063616D6269612069BA
:101CB0006C204D414320287269617676696F290056
:101CC000436F6D616E646F2073636F6E6F736369D2
:101CD00075746F3A20004D41432073616C766174D6
:101CE0006F3A207269617676696F00466F726D6136
:101CF000746F3A206D61632030303A30383A444393
:101D00003A31323A33343A35360025783A25783A42
:101D100025783A25783A25783A25780070696E203A
:101D20006E6F6E20616D6D6573736F006D61632002
:101D30000073640050494E20646F63656E746520C3
:101D40007265696D706F737461746F2061203132D8
:101D5000333400313233340070696E20726573653C
:101D60007400495020666973736F2073616C7661EB
:101D7000746F00466F726D61746F3A206970203124
:101D800039322E3136382E312E3530203235352E3F
:101D90003235352E3235352E30203139322E31362E
:101DA000382E312E312020286F70707572653A20E0
:101DB000697020646863702900697020004448439A
:101DC0005020617474697661746F00697020646872
:101DD0006370005B696F5D206665726D6F00696F8F
:101DE000206F666600696F206F6E0050726F6772B9
:101DF000616D6D61206665726D61746F202853544A
:101E00004F50290050726F6772616D6D612061766D
:101E1000766961746F202852554E29004E657373A0
:101E2000756E2070726F6772616D6D612063617293
:101E3000696361746F00696F0073746F700072750D
:101E40006E003F0068656C7000696E666F006D69BA
:101E500063726F534420696E736572697461000028
:101E6000002100240027002A002D0030003300014B
:101E7000010000040107010A0100002200250028DA
:101E8000002B002E00310034000201000005010883
:101E9000010B01000020002300260029002C002F48
:101EA00000320000010000030106010901050505DB
:101EB00005070508080808020202020A0A080804C1
:101EC00004040401010101010101010303030303EF
:101ED000030303040707070C0C0C0C0C0C0C0C027E
:101EE00002020206060606060606060B0B0B0B0B85
:101EF0000B0B0B010210202008081020401020407E
:101F000080020102010804020101020408102040BD
:101F100080804020100804020180040201804020DB
:101F20001008040201080402010102040810204004
:101F300080010204081020408000000A0B02090CF6
:101F40000D0E08070304010000000000000000005F
:101F50000000000000000000000000000000000081
:101F6000000000000012111000000000000000003E
:101F70000000000000000000000000000000006100
:101F800070706C69636174696F6E2F6F63746574D0
:101F90002D73747265616D0043616368652D436FD5
:101FA0006E74726F6C3A206E6F2D73746F72650D64
:101FB0000A436F6E6E656374696F6E3A20636C6F6F
:101FC00073650D0A00436F6E74656E742D4C656EFB
:101FD0006774683A2000436F6E74656E742D54798F
:101FE00070653A2000204572726F7200204E6F7447
:101FF00020466F756E640020466F72626964646586
:102000006E00204261642052657175657374002012
:102010004F4B00485454502F312E312000457272DE
:102020006F7265206469206C65747475726100421A
:102030006C6F63636F2025753A206D656D6F7269F3
:102040006100426C6F63636F2025753A206D656D8A
:102050006F72696100426C6F63636F2025753A206F
:10206000706167696E6500426C6F63636F202575F0
:102070003A20257300426C6F63636F2025753A2008
:1020800074726F70706520766172696162696C69E3
:10209000206E65676C692073637269707400426CAE
:1020A0006F63636F2025753A2073637269707400E3
:1020B000426C6F63636F2025753A20657374656E9B
:1020C00073696F6E652073656E7A612073637269E0
:1020D0007074204300426C6F63636F2025753A2053
:1020E000696D6D6167696E6500426C6F63636F2037
:1020F00025753A20696D6D6167696E6500426C6F88
:1021000063636F2025753A20746573746F00426CA9
:102110006F63636F2025753A20636F6E66726F6E12
:10212000746F00426C6F63636F2025753A206F7087
:102130006572617A696F6E6500426C6F63636F20D0
:1021400025753A202573206E6F6E206861205057E8
:102150004D00426C6F63636F2025753A2025732014
:102160006E6F6E20652720756E27757363697461C5
:1021700000426C6F63636F2025753A202573206ED3
:102180006F6E20652720616E616C6F6769636F00F9
:10219000426C6F63636F2025753A202573206E6F44
:1021A0006E20652720756E20696E67726573736F88
:1021B00000426C6F63636F2025753A2070696E2052
:1021C0006E6F6E207363656C746F00426C6F636337
:1021D0006F2025753A2066696C6F206E6F6E2076D1
:1021E000616C69646F00426C6F63636F2025753AA0
:1021F00020696E67726573736F20257520696E653F
:1022000073697374656E746500426C6F63636F20ED
:1022100025753A207469706F202575206E6F6E20C9
:10222000646973706F6E6962696C65207375207183
:1022300075657374612073636865646100457272CB
:102240006F7265206469206C6574747572610045F5
:1022500072726F7265206469206C65747475726146
:10226000002573206E6F6E20652720616E616C6F94
:102270006769636F00496C2070696E202573206563
:10228000272072697365727661746F004D6F646F99
:102290002070696E206E6F6E2076616C69646F00CD
:1022A0004572726F7265206469206C657474757212
:1022B0006100537472757474757261206E6F6E2054
:1022C00076616C6964610054657374692B73637221
:1022D0006970742074726F70706F206C756E6768AF
:1022E0006920286D61782025752062797465290040
:1022F00050726F6772616D6D612074726F70706F74
:10230000206772616E64650054726F70706920623C
:102310006C6F63636869202825752C206D617820B7
:102320002575290056657273696F6E6520257520C5
:102330006E6F6E20737570706F7274617461004699
:10234000696C65206E6F6E2076616C69646F004EFB
:10235000657373756E2070726F6772616D6D610069
:10236000F8AAEDAA11241FBECFEFD1E2DEBFCDBF88
:1023700000E00CBF14E0A0E0B2E0E6E5F8E803E01E
:102380000BBF02C007900D92A03FB107D9F72BE118
:10239000A0EFB4E001C01D92A836B207E1F711E149
:1023A000C1EBD1E100E006C021970109802FFE01B9
:1023B0000E94DBCCC03BD10780E00807A9F70E9450
:1023C0002DAC0C948CCE0C940000FC01538D448DEC
:1023D000252F30E0842F90E0821B930B541710F0D0
:1023E000CF96089501970895FC01918D828D9817DD
:1023F00061F0A28DAE0FBF2FB11D5D968C91928DB5
:102400009F5F9F73928F90E008958FEF9FEF0895E5
:10241000FC01918D828D981731F0828DE80FF11DAE
:10242000858D90E008958FEF9FEF0895FC01918DC9
:10243000228D892F90E0805C9F4F821B91098F73C2
:10244000992708958AE399E10E94161221E0892BC9
:1024500009F420E0822F0895FC01A48DA80FB92F64
:10246000B11DA35ABF4F2C91848D90E001968F73BC
:102470009927848FA689B7892C93A089B1898C91DB
:10248000837080648C93938D848D981306C002882A
:10249000F389E02D80818F7D80830895EF92FF92F4
:1024A0000F931F93CF93DF93EC0181E0888F9B8D77
:1024B0008C8D98131AC0E889F989808185FF15C031
:1024C0009FB7F894EE89FF896083E889F989808154
:1024D0008370806480839FBF81E090E0DF91CF9123
:1024E0001F910F91FF90EF900895F62E0B8D10E045
:1024F0000F5F1F4F0F731127E02E8C8D8E110CC0B4
:102500000FB607FCFACFE889F989808185FFF5CFFE
:10251000CE010E942C12F1CFEB8DEC0FFD2FF11D9F
:10252000E35AFF4FF0829FB7F8940B8FEA89FB893B
:1025300080818062CFCFCF93DF93EC01888D882399
:10254000B9F0AA89BB89E889F9898C9185FD03C016
:10255000808186FD0DC00FB607FCF7CF8C9185FFFB
:10256000F2CF808185FFEDCFCE010E942C12E9CF02
:10257000DF91CF91089580E090E0892B29F00E94AF
:10258000221281110E94000080E090E0892B49F026
:1025900080E090E0892B29F00E94000081110E94C8
:1025A000000080E090E0892B49F080E090E0892BEA
:1025B00029F00E94000081110E94000080E090E05C
:1025C000892B49F080E090E0892B29F00E940000DF
:1025D00081110C9400000895DC015996ED91FC9155
:1025E0003097B9F083899489A589B6894285538546
:1025F00064857585841B950BA60BB70B811520E8A8
:102600009207A105B10538F08FEF9FE7A0E0B0E099
:10261000089590E080E00895DC0159968D919C9199
:10262000009739F0DC01ED91FC910480F581E02DFB
:10263000199490E080E00895CF93DF931F92CDB777
:10264000DEB76983DC01ED91FC910280F381E02D1E
:1026500041E050E0BE016F5F7F4F19950F90DF9111
:10266000CF910895FC0120812EBD9B01215031099D
:1026700041F051810DB407FEFDCF4EB55EBD4193D3
:10268000F5CF61507109860F971F0DB407FEFDCF7E
:102690002EB5FC0120830895E091770BF091780B23
:1026A00080819091760B892B80830895E091770B40
:1026B000F091780B90818091760B809589238083AF
:1026C000089590E02091F40B233339F40C96982F61
:1026D000990F990F990F80E008954896F8CF0895C3
:1026E000CF93DF931F92CDB7DEB76983DC01ED9105
:1026F000FC910280F381E02D41E050E0BE016F5F6C
:102700007F4F19950F90DF91CF910895FC01818D36
:10271000928D0895CF93DF931F92CDB7DEB7698373
:10272000DC01ED91FC910280F381E02D41E050E06D
:10273000BE016F5F7F4F19950F90DF91CF91089584
:10274000FC019485FB018485981303C081E09830D7
:1027500008F080E00895CF93DF931F92CDB7DEB7E6
:102760006983DC01ED91FC910280F381E02D41E071
:1027700050E0BE016F5F7F4F19950F90DF91CF91B1
:102780000895FC01768765870895DC01ED91FC9141
:1027900002A0F3A1E02D199591E089270895862FD5
:1027A000089581E08627089521E0FC018485883022
:1027B00008F020E0822F089508952091530B260FF2
:1027C0003327331F21323105ECF42091C418FC016A
:1027D00090E080E0243069F082E00895A091530BEE
:1027E0002191AC014D5C544FA40FB52FB11D2C931A
:1027F0000196861798F38091530B680F6093530BE3
:1028000080E0089581E0089508950895E0918F0B88
:1028100080918E0BE81730F4F0E0ED5EF44F80818C
:1028200090E008958FEF9FEF089590918F0B809126
:102830008E0B2FEF3FEF981748F4E92FF0E0ED5E95
:10284000F44F208130E09F5F90938F0BC901089572
:1028500080918E0B90918F0B891B990B0895CF92CD
:10286000DF92EF92FF920F931F93CF93DF937C0140
:10287000CB018A012091CA18222389F0EB016B0158
:10288000C40ED51ECC15DD0569F06991D701ED9117
:10289000FC910190F081E02DC7011995F3CF642FD1
:1028A0000E94DD13C801DF91CF911F910F91FF901E
:1028B000EF90DF90CF900895CF93DF931F92CDB725
:1028C000DEB769832091CA182223F9F02091EC1811
:1028D000203258F021E030E0FC013383228390E085
:1028E00080E00F90DF91CF9108958091CB18E82F71
:1028F000F0E0E453F74E998190838F5F8093CB187B
:102900008093EC1881E090E0ECCF61E0CE0101967D
:102910000E94DD13F7CF0F931F93CF93DF938C01AA
:1029200009571F4FD8014C914423B9F0EC018D8118
:102930009E8150E0BE01695F7F4FDC01ED91FC910B
:102940000280F381E02D1995F801208128171906DE
:1029500011F081E08C83D8011C92DF91CF911F91FF
:102960000F910895CF92DF92EF92FF920F931F93F2
:10297000CF93DF937C018A01EB016B01C40ED51E5E
:10298000CC15DD0551F06991D701ED91FC910190D5
:10299000F081E02DC7011995F3CFC801DF91CF91E8
:1029A0001F910F91FF90EF90DF90CF900895DC0181
:1029B000A957BF4FEC9121E02E0F2C93E80FF92F70
:1029C000F11D6783203811F40E948B1481E090E0A0
:1029D0000895089508950895DC0112962C91129798
:1029E000222351F05C96ED91FC91309729F0638998
:1029F000748985899689089560E070E0CB01089517
:102A00008EBD00000DB407FEFDCF8EB508950F9367
:102A10001F938A3008F065C0E82FF0E08827EC5E4D
:102A2000FA4E8F4F0C94DBCC1E15261529152C154C
:102A30002F1532153C153F154A155515609169063D
:102A400070E090E080E01F910F910895609168061A
:102A5000F7CF60916706F4CF60916B06F1CF60917C
:102A60006C06EECF60916D0670E06053784F072ED4
:102A7000000C880B990BE7CF60916A06E1CF80913B
:102A800069066091680670E024E6829F600D711D02
:102A90001124EDCF809169066091680670E09CE397
:102AA000899F600D711D1124E2CF2091690630E0ED
:102AB000A0E1BEE00E9498CC009168062CE3029F42
:102AC00080011124012E000C220B330B600F711FAB
:102AD000821F931F20916706620F711D811D911D3A
:102AE000B2CF60E070E0CB01AECFFC018681909167
:102AF0000102981731F090910202A1E0891711F0BC
:102B00000895A0E0B0E0AF5FBD4F9C91923049F1D5
:102B1000933059F18EEE890F8430A0F487E1891B40
:102B20008430B9F08530C9F0833079F0E89882E0DC
:102B300090E0880F991FFC01E55EFD4F83ED9EE854
:102B4000918380838FEF8C93DBCFE99883E090E0D3
:102B5000F0CFEA9884E090E0ECCFEB9885E090E04D
:102B6000E8CFEC9890E080E0E4CFED9881E090E051
:102B7000E0CFFC0190E080E02081262331E009F4E1
:102B800030E0341304C001968F3F9807A9F70895E9
:102B9000FC012081273131F02C3311F0243021F455
:102BA0000A96089542960895069608950E94EC1498
:102BB0006115710521E08207910520F06FEF7FEF2D
:102BC00080E090E0CB010895DC01ED91FC9111973C
:102BD000CF01019611969C938E939081892F97FF38
:102BE00039C08EE3890F823070F0ED91FC9111971E
:102BF0008081807C803811F08FE3089531961196A2
:102C0000FC93EE93F2CF8181807C803871F79F0135
:102C10002E5F3F4F2D933C9321812F7330E4939F80
:102C2000C0011124282B90E080E0FC01EF56F74F03
:102C3000E4912E130AC0662329F08857974FFC01B0
:102C4000849108958158974FFACF01968930910564
:102C500061F7D2CF0895FC01848595850895FC0124
:102C600084899589089527ED33E0FC013183208321
:102C7000FB014089518962897389FC014283538336
:102C8000648375830895DC01ED91FC91048CF58DCE
:102C9000E02D199490E080E008958F929F92AF927A
:102CA000BF92CF92DF92EF92FF920F931F93CF9339
:102CB000DF937C018B014C0182E0880E911C57014F
:102CC000E5E0AE0EB11CD0E0C0E0F40161914F012F
:102CD0004AE050E0C8010E949FA56C016EE2C80165
:102CE0000E94A6A58C0D9D1DC80FD91F8A149B0498
:102CF00061F74AE050E0F7016581C8010E949FA595
:102D00008C0F9D1FDF91CF911F910F91FF90EF903E
:102D1000DF90CF90BF90AF909F908F900895CF920B
:102D2000DF92EF92FF920F931F93CF93DF9300D028
:102D300000D000D0CDB7DEB78C01DC0119968D91A3
:102D40009C91892B09F473C00E94209DF801C784CF
:102D5000D088E188F2886C157D058E059F0520F4EA
:102D60006787708B818B928BF801C784D088E1884C
:102D7000F2886C197D098E099F096C3271408105BA
:102D8000910510F3F894D80114968D919C911597A4
:102D90009A8389831996ED91FC917F01BFEFEB1A1D
:102DA000FB0A80818987F80190810388F489E02DEE
:102DB000D80155968C91992309F448C09081982B9D
:102DC00098879081809589238F838F818C8388E079
:102DD0008B8358856F8149853B812C8189819A81BC
:102DE000D701508347FD252F3A952083262F39F0B0
:102DF000441F00C000006083000000C0F2CF38E034
:102E00004D9160830000019761F7D8015496FC93BF
:102E1000EE93539749873B832C839A8389837894D5
:102E20000E94209DF8016787708B818B928B299679
:102E30000FB6F894DEBF0FBECDBFDF91CF911F91CB
:102E40000F91FF90EF90DF90CF9008959081982B95
:102E500098879081809589238F838F818E8388E0E6
:102E60008D8358856F8149853D812E8189819A8125
:102E7000D701508347FD252F00C000C0208300C02C
:102E800000C000C000C000C060830000262F3A953B
:102E900041F0441F000000C000C000C000C000C0DE
:102EA000E8CF38E04D9100C0608300C0019709F77A
:102EB000D8015496FC93EE93539749873D832E8314
:102EC000ACCFEDECF7E080E1DF011D928A95E9F7E8
:102ED00080E8EDE4F7E0DF01982F1D929A95E9F77D
:102EE000E1ECF6E0DF011D928A95E9F71092DD0A28
:102EF00010924B0710924C070895CF92DF92EF92F9
:102F0000FF920F931F93CF93DF936C0110E000E0CB
:102F1000D0E0C0E0E62EF12CB7010C2E02C0759572
:102F200067950A94E2F76170F60186859785A08916
:102F3000B189002E04C0B595A795979587950A94F9
:102F4000D2F78F770E94999C2196095F1F4FC4305A
:102F5000D10511F7DF91CF911F910F91FF90EF9065
:102F6000DF90CF900895CF93DF93EC018E859F85FE
:102F7000A889B989B4FD04C060E0CE010E947D1724
:102F8000CE55DE40D595C79583EAC89FC02D112444
:102F900080911002C81303C08FEF809310028091BC
:102FA0001502C81303C08FEF80931502DF91CF91F4
:102FB00008951F93CF93DF938E559E4095958795E7
:102FC00093EA899F802D1124E8E0F2E0C0E091911E
:102FD000981317C0D0E0FE01EC5FFD4F8081F8949C
:102FE0001FEF1083FE01E356F94F1082789460E0E2
:102FF0000E94999CC85FDD4F1883DF91CF911F918C
:103000000895CF5FC43019F7F8CFCF93CFB7F894B6
:103010008091120B811127C0E2EEFEE18491E8E27B
:10302000FFE19491E82FF0E0EE0FFF1FE15AF14E1F
:10303000A591B491EC91E92321F461E085E30E942C
:10304000999C61E085E30E94C79C8CB580618CBD32
:103050008CB580648CBD61E084E30E94C79C61E014
:1030600083E30E94C79C8091120B8F5F8093120BA9
:10307000CFBFCF910895CF93DF93EC0161E08E85B0
:103080000E94C79C1A8A1B8A1C8A1D8ADF91CF91D5
:103090000895DF92EF92FF920F931F93CF93DF93E8
:1030A000EC018E859F85A889B98904E0B4FD02E012
:1030B000F12CE12C10E08E859F85A889B9890E2C12
:1030C00004C0B595A795979587950A94D2F761E0C6
:1030D0008F770E94C79C8E859F85A889B9890E2C01
:1030E00004C0B595A795979587950A94D2F760E0A7
:1030F0008F770E94999C1F5F87E0E80EF11C0113F7
:10310000DACFCE55DE40D595C79583EA9BE8C89FB8
:103110008001C99F100DD89F100D112480911002BD
:103120008F3F59F0081749F0809115028F3F11F039
:10313000081314C0C1E0D0E002C0D0E0C0E00E949B
:10314000209D25E02C9FF0012D9FF00D1124E45FC0
:10315000FD4F60837183828393830483DF91CF91DA
:103160001F910F91FF90EF90DF900895DF92EF9203
:10317000FF920F931F93CF93DF93E8E0F2E0D0E04C
:10318000C0E0D1902FEFD21273C08C01FE01E85F36
:10319000FD4F8E559E409595879543EA5BE8849F49
:1031A0009001859F300D949F300D112420837E0166
:1031B000EE0CFF1CEE0CFF1CF701E358F94F8FEFEC
:1031C0009FEFDC0180839183A283B3830E94759F6C
:1031D000F701E357F94F6083718382839383F8018A
:1031E000128961E0812F0E94C79C60E0812F0E94BC
:1031F000999CF894FE01EE0FFF1FEB58F94F88EBF6
:103200009BE091838083FE01E356F94F1082CC5FEF
:10321000DD4F1883789480917406811121C0F89451
:1032200010922001109225011092240182E08093D7
:10323000210188EC90E090932B0180932A01D09299
:103240000302109273061092720684E08ABB80918A
:103250007300846080937300789481E08093740697
:10326000DF91CF911F910F91FF90EF90DF90089524
:103270002196C430D10509F084CFF2CFCF93DF93EC
:10328000EC0161E08E850E94C79C60E08E850E9403
:10329000999C60E08F850E94C79C0E94759F6A8BF5
:1032A0007B8B8C8B9D8BDF91CF910895CF92DF929A
:1032B000EF92FF921F93CF93DF93209101022F3F54
:1032C00039F0209102022F3F09F03FC011E001C008
:1032D00010E0FC01C12F012E000CDD0B86819781CF
:1032E0009E012F5F3D4F7901F90180839E01265A8F
:1032F000394F6901F901908362E00E94C79C62E046
:10330000F60180810E94C79CF894CC0FDD1FCC0F82
:10331000DD1FC25AD94F188219821A821B827894F3
:1033200027EB3EE1112311F024EB3EE1F701908100
:10333000923099F430931C0220931B0280916A0012
:103340008C7F816080936A00EC9ADF91CF911F910E
:10335000FF90EF90DF90CF900895933061F4309319
:103360001E0220931D0280916A00837F84608093F7
:103370006A00ED9AEACF8EEE890F843030F787E14C
:10338000891BE82FF0E0EE0FFF1FE55EFD4F318354
:1033900020838430A1F08530D1F0833041F08091DA
:1033A00069008C7F816080936900E89ACECF80911C
:1033B0006900837F846080936900E99AC6CF809119
:1033C00069008F7C806180936900EA9ABECF80910A
:1033D00069008F73806480936900EB9AB6CFCF93B6
:1033E000DF93EC0162E08E810E94C79C0E94759F72
:1033F0006A877B878C879D87DF91CF910895CF92D5
:10340000DF92FF920F931F93CF93DF93F82ED0E0BC
:10341000C0E0062F10E068010C2E02C0D594C794BE
:103420000A94E2F781E0C822DD24F89461E08F2D50
:103430000E94C79C60E08F2D0E94999C8CE390E0D5
:10344000C114D10411F086E090E0880F991F880F15
:10345000991F05970197F1F762E08F2D0E94C79C95
:1034600078948AE090E0CD2811F080E490E0880F15
:10347000991F880F991F05970197F1F72196C8307A
:10348000D10549F6DF91CF911F910F91FF90DF9009
:10349000CF900895CF93DF93EC0162E08E810E947C
:1034A000C79C0E94759F685E7340810991096E8771
:1034B0007F87888B998BDF91CF9108950C9465C19C
:1034C0000C9465C10C9465C1CF93DF93C091BF0686
:1034D000D091C0062097E9F04C815D8170E060E0FA
:1034E00089859A850E9442CECE010E948F168985D9
:1034F0009A850E9465C18E819F8197FD03C060E01F
:103500000E94C79CCE010E9465C11092C006109215
:10351000BF06DF91CF9108953F924F925F926F92D5
:103520007F928F929F92AF92BF92CF92DF92EF9253
:10353000FF920F931F93CF93DF93CDB7DEB7C75A98
:10354000D1090FB6F894DEBF0FBECDBFFC01C68413
:10355000D784E088F18849015A018C189D08AE088B
:10356000BF0875016401E0EDCE16E7E0DE06E10478
:10357000F10408F405C1CA55DF4F79836883C65A40
:10358000D040FC0126873787408B518B428453847F
:1035900064847584F6808E010F551F4F85E0F80115
:1035A00011928A95E9F78F2D90E0FC01E355F14ED9
:1035B000E491F0E0EE0FFF1FED56F14EA590B490B0
:1035C000FC01ED50F14E349061E00E94C79C60E038
:1035D0008F2D0E94999C62E070E080E090E0F1E025
:1035E0004F1651046104710421F064E170E080E041
:1035F00090E00E94059F62E08F2D0E94C79C8BE99E
:1036000090E00197F1F7F89440E0632DC5010E9426
:10361000B915019641F041E0632DC5010E94B9152D
:1036200021E0019609F420E0CE0101967C016C01B5
:103630002223F9F00C151D05E1F040E0632DC501D2
:103640000E94B9154C01F6019183808341E0632DFE
:10365000C5010E94B915F601938382838920809465
:1036600019F021E0019609F420E064E0C60ED11CB7
:10367000DFCF7894222309F483C090E0F7014081E2
:103680005181228133814F3F540709F479C02F3F84
:10369000320709F475C0E92FE695E695E695E00F47
:1036A000F12FF11D8081880F4217530708F441C0A4
:1036B00080839F5F84E0E80EF11C9832F9F6F801F0
:1036C000D08041814D0D5527551FE2802E2D30E0D1
:1036D000F380AF2DB0E0FA01E20FF31FCF018A0FA4
:1036E0009B1FF801648170E08617170609F048C037
:1036F000808191814A94452846284728E1F4582F33
:10370000492F052E000C660B770B922F88278827F0
:103710009F778F299B2B092E000CAA0BBB0BE7FE72
:1037200021C0B095A095909581959F4FAF4FBF4F09
:1037300019C08160BDCF29E0D29E400D511D1124DA
:10374000052E000C660B770B8F2D8F7090E03AE002
:10375000E39E800D911D1124092E000CAA0BBB0BBA
:10376000F7FCDFCFCA55DF4FE881F981C65AD04058
:1037700080839183A283B383448355836683778355
:10378000C955DF4F0FB6F894DEBF0FBECDBFDF9136
:10379000CF911F910F91FF90EF90DF90CF90BF904E
:1037A000AF909F908F907F906F905F904F903F90E1
:1037B0000895CF92DF92EF92FF920F931F93CF93D2
:1037C000DF93CDB7DEB7AF970FB6F894DEBF0FBE6D
:1037D000CDBF7C016A0107ED13E01A8309831C86C3
:1037E0001B8688EE93E0A0E0B0E08D879E87AF87D0
:1037F000B88B8DEA93E09A878987188F0F8B198E83
:103800001A8E1B8E1C8E88E089A31BA70AA71CA6F4
:103810001DA61EA61FA68091241A9091251AA0917C
:10382000261AB091271A8EA39FA3A8A7B9A78B83A6
:103830009C83AD83BE8318861F82AE01465D5F4FB9
:10384000CE0101960E9493A081309105B1F4D70179
:10385000ED91FC910488F589E02D1DA30CA38CA5A6
:103860009DA5AEA5BFA58EA39FA3A8A7B9A7A60196
:10387000BE016C5D7F4FC7011995AF960FB6F894E6
:10388000DEBF0FBECDBFDF91CF911F910F91FF9093
:10389000EF90DF90CF9008950E941AC521E0892B08
:1038A00009F020E0822F08950F931F93CF93DF93A9
:1038B000EC010FEF1FEF980148ED5CE068EC70E061
:1038C0000E9452A66CEC7CE0CE01DF91CF911F915B
:1038D0000F910C941CA6FF920F931F93CF93DF932D
:1038E00000D01F92CDB7DEB7062FF72EAE014F5F87
:1038F0005F4F66E674E00E94439A182F882309F10F
:1039000089819A81AB81BC81AC01BD0141505109D3
:10391000610971094336510561057105E8F49F930A
:103920008F9389E29DE09F938F931F9280E18F9305
:10393000FF920F930E94BBC50FB6F894DEBF0FBE77
:10394000CDBF812F0F900F900F900F90DF91CF91EF
:103950001F910F91FF90089510E0F3CFCF92DF9267
:10396000EF92FF920F931F93CF93DF93D82F162FD1
:10397000F42ED22E88E60E94119190E080E00E9401
:103980000C91CAE08E2D6C2F0E94A7CC20E1829F63
:10399000B0011124692B88E29AE10E945C14802F07
:1039A0006C2F0E94A7CC20E1829FB0011124692BCB
:1039B00088E29AE10E945C148D2D6C2F0E94A7CCA6
:1039C00020E1829FB0011124692B88E29AE10E94D4
:1039D0005C146C2D88E29AE10E945C148F2D6C2F90
:1039E0000E94A7CC20E1829FB0011124692B88E2BC
:1039F0009AE10E945C14812F6C2F0E94A7CC20E1D9
:103A0000829FB0011124692B88E29AE10E945C1424
:103A10008D2F6C2F0E94A7CC20E1829FB001112432
:103A2000692B88E29AE10E945C140E94459D1092E5
:103A30006E0610926F06109270061092710691E059
:103A4000811190E0892FDF91CF911F910F91FF900D
:103A5000EF90DF90CF900895EF92FF920F931F9316
:103A6000CF93DF93EC017A010FEF1FEF98014CEF3A
:103A70005CE00E9452A669EE7CE0CE010E941CA68A
:103A8000B701CE010E94E5A56DE7CE01DF91CF9190
:103A90001F910F91FF90EF900C94A6A5CF92DF920B
:103AA000EF92FF920F931F93CF93DF93CDB7DEB7C3
:103AB000EF970FB6F894DEBF0FBECDBF8C017B0130
:103AC000DB01ED91FC910280F381E02DCB01199592
:103AD0006C018E369105A0F464E27DE0C8010E947D
:103AE0001CA6EF960FB6F894DEBF0FBECDBFDF91D8
:103AF000CF911F910F91FF90EF90DF90CF9008959D
:103B0000D701ED91FC910190F081E02D28E230E0A9
:103B1000AE014F5F5F4F70E060E0C70119958823E9
:103B2000D9F289818035C1F68A818234A9F686E18D
:103B3000FE017396DE01999601900D928A95E1F748
:103B40001FAE6BE17DE0C8010E941CA6BE01675D4F
:103B50007F4FC8010E94E5A565E17DE0C8010E9494
:103B60001CA64AE050E06C81C8010E949FA56DE050
:103B70007DE0C8010E941CA6B601C8010E9495A55F
:103B80006DE7C8010E94A6A5ACCFAF92BF92CF92BD
:103B9000DF92EF92FF920F931F93CF93DF938C01ED
:103BA000C091BF06D091C006209791F089859A8573
:103BB0000E9465C18E819F8197FD03C060E00E94D5
:103BC000C79CCE010E9465C11092C0061092BF062C
:103BD00086E190E00E94C9C0EC01F801D284C38460
:103BE000A684B784198218861F86188A198A1A8AA9
:103BF00081E08E878B871C8692E09D878883750184
:103C0000EE0CFF1CEA0CFB1CFD82EC82C7010E943B
:103C1000C9C09A878987009709F45EC0A70170E040
:103C200060E00E9442CEBB82AA82C6019E83CF8200
:103C30008981882341F061E08D2D0E94C79C60E05E
:103C40008D2D0E94999C8D2D9C2DFC01E355F14EEC
:103C5000E491F0E0EE0FFF1FE758F14E259134910B
:103C60003C8B2B8BFC01ED50F14EE491ED8BD0930E
:103C7000C006C093BF06209721F18E819F8197FDDA
:103C800030C061E00E94C79C60E08E810E94999CD8
:103C900081E08983C091BF06D091C0064C815D81CF
:103CA00070E060E089859A850E9442CECE010E9434
:103CB0008F168FEF9FEFDC01F801828B938BA48B23
:103CC000B58BDF91CF911F910F91FF90EF90DF9017
:103CD000CF90BF90AF9008951D821C821B821A82E4
:103CE000A4CF1982D7CF0F931F93CF93DF93C82F01
:103CF000D0E0FE01EF5FFD4F80810E94709C8C013F
:103D0000FE01E65AF94F80810E94709CAC0121E0CF
:103D1000012B09F420E091E0452B09F490E081E0CB
:103D2000291301C08FEFFE01EE0FFF1FEE0FFF1FE3
:103D3000E25AF94F0081118122813381482F082EE8
:103D4000000C550B660B770B400F511F621F731F42
:103D50004083518362837383C45AD94F8883DF9130
:103D6000CF911F910F91089581E00C94731E80E014
:103D70000C94731ECF93C82F61E00E94C79C60E033
:103D80008C2F0E94999C8BE797E00197F1F7F894AC
:103D900062E08C2F0E94C79C83E191E00197F1F7CC
:103DA0008C2F0E94709C9C017894E3E6F6E031979A
:103DB000F1F781E0232B09F080E0CF9108952F9255
:103DC0003F924F925F926F927F928F929F92AF92AB
:103DD000BF92CF92DF92EF92FF920F931F93CF93F8
:103DE000DF9300D000D000D0CDB7DEB77C018B01CF
:103DF00049015A01FC013680818180FD35C0832D47
:103E00000E94BA1E811123C0F80114821582168205
:103E10001782F70182869386A486B58629960FB607
:103E2000F894DEBF0FBECDBFDF91CF911F910F91F0
:103E3000FF90EF90DF90CF90BF90AF909F908F90CA
:103E40007F906F905F904F903F902F9008956CEC13
:103E5000832D0E94FF1964E4832D0E94FF19F7014E
:103E6000818181608183D6CF428553856485758544
:103E7000841A950AA60AB70AF0E28F16F3E09F06A5
:103E8000A104B10458F28E7FF7018183832D0E9433
:103E9000BA1E811106C0F80114821582168217829B
:103EA000BDCF6CEC832D0E94FF196EEB832D0E9419
:103EB000FF19CE0101966C014E019AE0890E911C0A
:103EC000560193E2492E512C2FEC622E712CF12CCD
:103ED000E12C212CF89461E0832D0E94C79C60E0C6
:103EE000832D0E94999C87E090E00197F1F762E0B2
:103EF000832D0E94C79CC2010197F1F7832D0E9478
:103F0000709C7894F3013197F1F7892B41F081E0AF
:103F100090E00E2C01C0880F0A94EAF7282AEFEFF0
:103F2000EE1AFE0AF8E0EF16F104A1F6F50121926F
:103F30005F01E815F90559F699E080E06CE89150C9
:103F400099F0F60151916F0148E0782F7527282FDD
:103F500030E035952795822F70FF02C0862F82278B
:103F60005695415091F7EBCF9985981394CFA9813D
:103F7000BA812AE030E00E94EACC20E130E040E063
:103F800050E00E9466CCF801208331834283538342
:103F900081E090E0A0E0B0E084839583A683B783BE
:103FA0003DCF2091F50B222321F068E277E30C94BA
:103FB0001A9380E00895CF93DF93EC018091F50B85
:103FC000882371F06BEF76E3CE010E941A93811182
:103FD00007C069E677E3CE01DF91CF910C941A9385
:103FE000DF91CF910895EF92FF920F931F93CF939C
:103FF000DF93CDB7DEB7E0970FB6F894DEBF0FBE04
:10400000CDBF8C017B01BA014FE250E0CE01019699
:104010000E9450C518AAAE014F5F5F4FB701C8019B
:104020000E942C1DE0960FB6F894DEBF0FBECDBFE8
:10403000DF91CF911F910F91FF90EF9008950F9313
:104040001F93CF93DF93EC01062FBA0110E0A80174
:10405000415051090E9450C5C00FD11F21971882AD
:10406000DF91CF911F910F9108954F925F926F92C0
:104070007F928F929F92AF92BF92CF92DF92EF92F8
:10408000FF920F931F93CF93DF93EC016B014901D4
:104090005A012701380162EC7CE00E941CA66AE804
:1040A0007CE080E3C81681E0D80611F461E97CE089
:1040B000CE010E9440A66AEB7CE0CE010E941CA6C5
:1040C0002AE0B301A201CE010E9449A562E2CE011D
:1040D0000E94A6A5CE010E949BA562EA7CE0CE01CB
:1040E0000E9440A688ECC816D10471F469E37CE014
:1040F000CE010E941CA62AE0B501A401CE010E94B7
:1041000049A5CE010E949BA565E27CE0CE01DF912E
:10411000CF911F910F91FF90EF90DF90CF90BF90C4
:10412000AF909F908F907F906F905F904F900C9486
:1041300040A6CF93DF93EB0190EE980F9F3598F454
:104140008052990B25E0289FB001299F700D112402
:10415000695D754F45E050E0CE010E9411C51D829A
:10416000DF91CF91089590E8980F973018F481521D
:10417000990BE8CF8FE190E0E5CFEF92FF920F939C
:104180001F93CF93DF93C901B0E0A0E0860F971F84
:10419000A11DB11D81309C40A105B10590F4EA013B
:1041A0008B017A01E20EF31E041B150B1C5FCE156A
:1041B000DF0579F0C8018C0F9D1F0E941ECC8993EA
:1041C000F6CF80E0DF91CF911F910F91FF90EF909C
:1041D000089581E0F7CFCF93DF93EC018E850E94A5
:1041E00095A41A8A1B8A1C8A1D8ADF91CF91089593
:1041F000BF92CF92DF92EF92FF920F931F93CF93D4
:10420000DF93CDB7DEB76A970FB6F894DEBF0FBE67
:10421000CDBFFFA0D8A4E9A49E01245D3F4F4AA5CD
:104220005BA568E170E08E010F5F1F4FC8010E941F
:104230001AC64E2D50E060E270E08F2D9D2D0E9439
:1042400042CEC09000021A8F098FBF2C0F2D1D2D5A
:10425000E98DFA8D8081882369F0802F8B198E1566
:1042600048F46C2DCE0149960E94E415F801819323
:104270008F01EECF6A960FB6F894DEBF0FBECDBFAA
:10428000DF91CF911F910F91FF90EF90DF90CF9032
:10429000BF900895DC0187ED93E08D939D9384E0BA
:1042A000FB0101900D928A95E1F708951F920F92FC
:1042B0000FB60F9211240BB60F922F933F934F938B
:1042C0005F936F937F938F939F93AF93BF93EF937E
:1042D000FF938AE399E10E942C12FF91EF91BF9125
:1042E000AF919F918F917F916F915F914F913F918E
:1042F0002F910F900BBE0F900FBE0F901F9018952F
:104300001F920F920FB60F9211240BB60F922F939C
:104310008F939F93EF93FF93E0914A19F0914B197C
:104320008081E0915019F091511982FD1DC090815A
:10433000809153198F5F8F7320915419821741F028
:10434000E0915319F0E0E65CF64E958F8093531997
:10435000FF91EF919F918F912F910F900BBE0F9036
:104360000FBE0F901F9018958081F2CF8FEF0C94A5
:104370000015FC01DB0112968D919C91139793839C
:1043800082838FE793E09183808314968C911497B6
:10439000848315968C911597858316964D915D9122
:1043A0006D917C91199746835783608771871A9620
:1043B0004D915D916D917C911D97428753876487E4
:1043C00075871E964D915D916D917C9151974687B1
:1043D0005787608B718B52968C915297828B539634
:1043E0004D915D916D917C915697438B548B658B6C
:1043F000768B57964D915D916D917C915A97478B35
:10440000508F618F728F5B968D919C91948F838F6B
:104410000895DC015996ED91FC91309721F081E0EF
:104420009581911101C080E00895EF92FF920F9362
:104430001F93CF93DF93EC017B018A011B821A82C9
:1044400088EE93E0A0E0B0E08C839D83AE83BF83D1
:104450008BE593E0998388838DE190E00E94C9C049
:104460009A8F898F009779F02DE1F701DC01019097
:104470000D922A95E1F74CE050E0B801CE010C9680
:104480000E947DCE188EDF91CF911F910F91FF90EA
:10449000EF900895AF92BF92CF92DF92EF92FF928A
:1044A0000F931F93CF93DF9300D01F92CDB7DEB74A
:1044B0008C016B017A018091F40B8333E9F45B0189
:1044C0006801C40ED51EC016D106A9F10E9456136C
:1044D0008FE00E940015812F0E940015802F0E94FE
:1044E00000150F5F1F4F80E00E940015F5018193BA
:1044F0005F010E944C13E7CF843369F50E94561385
:1045000019830A838F2D8F778B83EC8264E070E0B0
:10451000CE0101960E943213A70170E060E0C6014F
:104520000E9442CEE114F10421F0B701C6010E94BD
:1045300032130E944C13C7010F900F900F900F90F1
:10454000DF91CF911F910F91FF90EF90DF90CF906F
:10455000BF90AF9008950E9456130F3F110509F0C8
:1045600030F419820A831B8263E070E0D1CF17FD1B
:104570000BC019820A8333E0169507953A95E1F747
:10458000007E08600B83F0CFC80126E096958795E2
:104590002A95E1F7807E19830A830115104C18F4DF
:1045A00080618B83E1CF8861FCCFCF93DF931F9233
:1045B000CDB7DEB741E050E0BE016F5F7F4F0E9494
:1045C0004A2289810F90DF91CF91089590E080E099
:1045D0000C94D522CF93DF93C4E1D0E00E94E62271
:1045E000882361F061E070E080E090E00E94059F28
:1045F0002197A1F780E0DF91CF91089581E0FBCF73
:104600002091790B30E0322F2227620F731F90E048
:10461000982F8827860F971F0C94D522AF92BF92B0
:10462000CF92DF92EF92FF920F931F93CF93DF937E
:1046300000D000D01F921F92CDB7DEB78C017B0156
:104640006A018091F40B8333E1F45801A40EB51E86
:10465000A016B10609F46FC00E94561380EF0E94A5
:104660000015812F0E940015802F0E9400150F5FFA
:104670001F4FF70181917F010E9400150E944C138A
:10468000E7CF5B01A40EB51E8433C1F40E9456131C
:1046900019830A838D2D80688B83CC8264E070E05F
:1046A000CE0101960E943213AE14BF0409F441C03A
:1046B000F70181917F010E940015F6CF0E945613E9
:1046C0000F3F110509F028F419820A8384E08B83D7
:1046D0000CC017FD17C019820A8333E016950795A1
:1046E0003A95E1F7007E0C600B8386E0C816D10492
:1046F000A0F5F701DE011496EA15FB0599F081910A
:104700008D93FACFC80126E0969587952A95E1F713
:10471000807E19830A830115104C10F48461D7CF71
:104720008C61D5CFB6016D5F7F4FCE0101960E949F
:1047300032130E944C13C60128960FB6F894DEBFC0
:104740000FBECDBFDF91CF911F910F91FF90EF90E2
:10475000DF90CF90BF90AF90089563E070E0CE01FE
:1047600001960E943213F70181917F010E9400158A
:10477000AE14BF04C1F7DDCF63E070E00C940023FA
:10478000DA01E091790BF0E0FE2FEE27E60FF71F3C
:1047900090E0982F8827A901BD018E0F9F1F0C94D0
:1047A0000E23CF93DF931F921F92CDB7DEB779838D
:1047B0006A8322E030E0AE014F5F5F4F60E170E05E
:1047C0000E94C0230F900F90DF91CF910895CF9357
:1047D000DF931F921F92CDB7DEB779836A8322E001
:1047E00030E0AE014F5F5F4F64E070E00E94C02395
:1047F0000F900F90DF91CF910895DA01E091790B3E
:10480000F0E0FE2FEE27E60FF71F90E0982F8827A5
:10481000A901BD018E0F9F1F0C944A226F927F92B7
:104820009F92AF92BF92CF92DF92EF92FF920F933F
:104830001F93CF93DF931F921F92CDB7DEB7982EB1
:104840008B013A01690122E030E0AE014F5F5F4F1A
:1048500064E270E00E94FD23E980FA80FE24EF24E8
:10486000FE24E00EF11E970137704091F40B092DE4
:1048700010E0C801433309F04CC00896982F8827F0
:10488000990F990F990F820F931F473309F446C070
:10489000A9014C0D5D1D4130584008F43FC060E057
:1048A00078E05B01A21AB30AA501B3010E940E23AE
:1048B000A6014A195B09B3016A0D7B1D8091F40BB7
:1048C000833349F5085F1F4F000F000F000F80E092
:1048D000902F0E940E23EC0CFD1CF982EA8222E04C
:1048E00030E0AE014F5F5F4F64E270E0892D0E94BF
:1048F000C0230F900F90DF91CF911F910F91FF90E8
:10490000EF90DF90CF90BF90AF909F907F906F908F
:1049100008954096B3CF005F1F4FD6CFA601B301D5
:10492000D8CFEF92FF921F93CF93DF931F921F92E6
:10493000CDB7DEB7182F22E030E0AE014F5F5F4FFA
:1049400060E270E00E94FD23E980FA80FE24EF24FB
:10495000FE2422E030E0AE014F5F5F4F60E270E086
:10496000812F0E94FD2389819A8198278927982782
:10497000E816F90689F487E0189FF0011124E45540
:10498000F44FF582E482C7010F900F90DF91CF9131
:104990001F91FF90EF9008957C01DBCFFF920F9362
:1049A0001F93CF93DF931F921F92CDB7DEB7F82EE0
:1049B00022E030E0AE014F5F5F4F66E270E00E94A0
:1049C000FD2309811A8110270127102722E030E0FA
:1049D000AE014F5F5F4F66E270E08F2D0E94FD23B6
:1049E00089819A819827892798270817190749F4F8
:1049F000C8010F900F90DF91CF911F910F91FF9001
:104A000008958C01E3CF44E050E0BC018FE090E0DA
:104A10000C940E2344E050E0BC0185E090E00C943F
:104A20000E2344E050E0BC0181E090E00C940E23A2
:104A3000CF93DF931F92CDB7DEB7698341E050E09B
:104A4000BE016F5F7F4F0E940E230F90DF91CF91C9
:104A50000895682F90E080E00C9418252091790B40
:104A600030E0322F2227260F371F90E0982F88271B
:104A7000642F820F931F0C941825CF93C82F462FB5
:104A800061E070E00E942E2561E070E08C2F0E94B2
:104A900000238111F9CFCF9108951092C41881E0BD
:104AA0008093C31810929E1861E084E10E94999C43
:104AB00061E085E10E94999CE9EBF0E080818E7FC6
:104AC000808380818D7F808388E48093B80085E433
:104AD0008093BC000895CF93DF9391E09093900B67
:104AE0008823B9F0C091B800D091BA008091BC0081
:104AF0008A7B8093BC0060E084E10E94999C60E026
:104B000085E10E94999C0E944D25D093BA00C093E4
:104B1000B800DF91CF91089585ED8093BC0080911E
:104B2000C6189091C718A091C818B091C9180796D7
:104B3000A11DB11D23E0B695A795979587952A9558
:104B4000D1F72091BC0024FD03C01092C418089531
:104B50004091C6185091C7186091C8187091C91833
:104B6000452B462B472B69F30097A105B10541F072
:104B70002AE22A95F1F700C00197A109B109E1CF16
:104B80008091C5180C946B251F920F920FB60F924F
:104B900011240BB60F922F933F934F935F936F9314
:104BA0007F938F939F93AF93BF93EF93FF938091E6
:104BB000B900887F803609F44DC008F040C08832C3
:104BC00009F4A9C028F5803109F49DC0C8F48823F0
:104BD00009F4FBC0883009F496C0FF91EF91BF91B2
:104BE000AF919F918F917F916F915F914F913F9185
:104BF0002F910F900BBE0F900FBE0F901F90189526
:104C0000883109F488C0803241F78093C21814C0FB
:104C1000803409F49DC040F48033B9F38833E9F659
:104C20008093C21885ECB0C0803509F485C0883502
:104C300009F496C0883489F60E948C25CECF883935
:104C400009F48CC038F5883729F050F4883611F013
:104C5000803719F683E08093C4181092750B57C003
:104C6000883809F47BC0803919F0803809F0B5CF55
:104C70008091750B803208F071C0E091750B81E076
:104C80008E0F8093750B8091BB00F0E0EB5AF44FD0
:104C900080833DC0803B39F0E0F4803A09F479C06C
:104CA000883A09F09ACF84E08093C4181092540B8C
:104CB0001092530BE0918C0BF0918D0B1995809114
:104CC000530B81110FC081E08093530B1092330B73
:104CD00009C0803C09F4A6CF883C09F4A3CF883BE7
:104CE00009F07BCFE091540B81E08E0F8093540B41
:104CF000F0E0ED5CF44F80818093BB009091540B09
:104D00008091530B29C080919F188093BB0085EC44
:104D10008093BC0062CF9091C1188091C018981701
:104D200058F5E091C11881E08E0F8093C118F0E032
:104D3000E056F74E8081E9CFE091C11881E08E0FF7
:104D40008093C1188091BB00F0E0E056F74E80835D
:104D50009091C1188091C0189817C8F285E8D8CFF3
:104D6000E091C11881E08E0F8093C1188091BB0043
:104D7000F0E0E056F74E80838091C31881115CCF3C
:104D800081E080939E1884EA8093BC001092C4183E
:104D900024CF85EC8093BC001092C4188091750BD1
:104DA000803230F4E091750BF0E0EB5AF44F108252
:104DB0006091750B70E0E0918A0BF0918B0B85E5AB
:104DC0009BE019951092750B08CF1092C21834CF42
:104DD0008F929F92AF92BF92CF92DF92EF92FF920B
:104DE0000F931F93CF93DF93EC0188E60E941191FC
:104DF00090E080E00E940C910E94459D182F88232E
:104E000071F080E0DF91CF911F910F91FF90EF90B3
:104E1000DF90CF90BF90AF909F908F9008950E94A9
:104E2000209D6B017C018091C418811164C081E0D8
:104E30008093C4188093C3189FEF9093C218109268
:104E4000C11896E09093C01880939F1880919F1886
:104E5000806D80939F1880919E18813009F0C4C0A6
:104E600010929E180E94209D6B017C0180919F18DA
:104E70008093BB008091C6189091C718A091C81864
:104E8000B091C918892B8A2B8B2BA1F00E94209DF1
:104E90008090C6189090C718A090C818B090C918F4
:104EA0006C197D098E099F0986169706A806B90612
:104EB00008F442C08091BC0083FDD8CF85EC80937C
:104EC000BC000E94209D6B017C018091C418813040
:104ED00009F48CC08091C118873008F0A9C0809176
:104EE000C118A0EAB8E1E3E1FBE0181749F19D9190
:104EF00091931F5FFACF8091C6189091C718A09127
:104F0000C818B091C918892B8A2B8B2B09F48BCF29
:104F10000E94209D8090C6189090C718A090C81835
:104F2000B090C9186C197D098E099F0986169706DD
:104F3000A806B90608F077CF8091C5180E946B25A6
:104F400010928F0B10938E0B173009F05ACF8E01F1
:104F50007E0187E0E80EF11C88E29AE10E941514B8
:104F6000F80181938F01EE15FF05B1F78881282F95
:104F70002F7722952F709AE08F70299F800D112432
:104F800088838981282F22952F708F70299F800D0B
:104F9000112489838A81282F2F7322952F708F7077
:104FA000299F800D11248A838B8187708B838C814C
:104FB000282F22952F708F70299F800D11248C83AC
:104FC0008D8184FB222720F98F70299F800D112469
:104FD0008D838E81282F22952F708F70299F800DB1
:104FE00011248E8381E00ECF85EE69CF8091C618A3
:104FF0009091C718A091C818B091C918892B8A2B15
:105000008B2B09F462CF0E94209D8090C61890904F
:10501000C718A090C818B090C9186C197D098E09DE
:105020009F0986169706A806B90608F04ECF84CFCA
:1050300087E057CFCF92DF92EF92FF920F931F93AB
:10504000CF93DF938C01EB0169017A0180916E06A9
:1050500090916F06A0917006B09171060097A1051E
:10506000B10559F0281B390B4A0B5B0BDA01C9015A
:10507000843F9140A105B105B8F087E696E00E9413
:10508000E82680936606C114D104E104F10421F4FA
:10509000C12CD12C7601C394C0926E06D0926F06BB
:1050A000E0927006F092710680916606882381F086
:1050B000F80186810E940715688379838A839B8320
:1050C000F80182850E9407156C837D838E839F8300
:1050D000DF91CF911F910F91FF90EF90DF90CF90D4
:1050E00008954F925F926F927F928F929F92AF92AC
:1050F000BF92CF92DF92EF92FF920F931F93CF93C5
:10510000DF9300D0CDB7DEB78C014B015A01C22E20
:10511000FB0101900020E9F731977F01E61AF70AB9
:10512000FF240115110509F486C0F8018081882348
:1051300009F481C0A701B401C8010E946FCE892B78
:1051400009F06EC0F801EE0DFF1D80818D3309F06E
:1051500067C0FFEFEF1AFF0A0E0D1F1D612C8C2D8B
:105160008150990B6C01F8017080E62CF12C7720AE
:10517000F1F1F6E27F16D9F1EC14FD04C4F5480113
:105180008FEF881A980A9BE2791671F1E5E27E1298
:1051900024C0F8014180842D042C000C990B0E943E
:1051A00020CE892BD1F0F8015280852D052C000CE2
:1051B000990B0E9420CE892B81F01B8249825A8252
:1051C00040E150E070E060E0CE0101960E9492C2A2
:1051D000762E4801F3E08F0E911CF501EE0DFF1DB8
:1051E000708263948401BFCF80E2782EF6CFEA0C00
:1051F000FB1CF701108281E00F900F900F90DF9160
:10520000CF911F910F91FF90EF90DF90CF90BF90C3
:10521000AF909F908F907F906F905F904F90089588
:1052200066E270E0C8010E9454CE009721F08C0124
:105230000F5F1F4F76CF80E0DFCF1F93CF93DF93B9
:10524000EC01162F0E941ECC181739F0612FCE01E9
:10525000DF91CF911F910C9426CCDF91CF911F91BC
:105260000895CF92DF92EF92FF920F931F93CF9307
:10527000DF93EC018A819B816A01F12CE12CC80E3D
:10528000D91EE11CF11C81E0C8168CE0D806E104AF
:10529000F10418F58A017B01D12CC12C8A819B81F4
:1052A0000C151D0561F0F70161917F019C5F8C0D6C
:1052B0009D1D0E941D29FFEFCF1ADF0AEFCF800F3F
:1052C000911F9B838A8381E0DF91CF911F910F9182
:1052D000FF90EF90DF90CF90089580E0F5CF0C9491
:1052E0001ECCCF9380E094E00E946F298035A9F412
:1052F00081E094E00E946F29823479F484E094E0A4
:105300000E946F29C82F85E094E00E946F29982F92
:105310008C2F81302CE0920710F090E080E0CF914C
:105320000895CF93DF93FB0122813381DC01139633
:105330003C932E9312974481558166817781149610
:105340004D935D936D937C9317974085518562854E
:10535000738518964D935D936D937C931B971C9664
:10536000EF012C969C01275E3F4F49914D93A21768
:10537000B307D9F7218D328DFC01328F218FDF9158
:10538000CF910895CF92DF92EF92FF920F931F93E8
:10539000CF93DF93CDB7DEB76B970FB6F894DEBF30
:1053A0000FBECDBF2091F50B211112C010E000E01F
:1053B000C8016B960FB6F894DEBF0FBECDBFDF916C
:1053C000CF911F910F91FF90EF90DF90CF900895B4
:1053D0006C018DE190E00E94C9C08C0180EB92E0ED
:1053E000D8018D939D937D01F8011582148288EE7A
:1053F00093E0A0E0B0E086839783A087B1878BE538
:1054000093E093838283148E138E168668E277E38B
:10541000C6010E941A9347E1B601CE0101960E948F
:105420001B92BE016F5F7F4FC7010E949129C70188
:105430000E9409228111BCCF0115110509F4B6CFD4
:10544000D801ED91FC910480F581E02DC8011995FA
:10545000ADCFEF92FF920F931F93CF93DF93CDB712
:10546000DEB76B970FB6F894DEBF0FBECDBF8C01D1
:1054700084EA92E0F8019183808312827801F3E05C
:10548000EF0EF11CF8011682158288EE93E0A0E081
:10549000B0E087839087A187B2878BE593E0948300
:1054A0008383158E148E17868091F50B882359F00F
:1054B00041E0CE0101960E941B92BE016F5F7F4FBB
:1054C000C7010E949129C7010E940922F801828325
:1054D0006B960FB6F894DEBF0FBECDBFDF91CF91B4
:1054E0001F910F91FF90EF900895FF920F931F93DC
:1054F000CF93DF9367EC90E080E00E941D2961E08C
:1055000081E090E00E941D290DEE18E1C2E0D0E09C
:10551000F801F1908F01CE010E941ECCF81621F007
:105520006F2DCE010E9426CC2196CE33D10581F776
:10553000DF91CF911F910F91FF900895089561E041
:10554000FC0184810E94999C80917B0B81111092B7
:105550007B0B08950F931F93CF93DF93EC010E9471
:10556000759F8B010E94B6218A878F3F91F40E941C
:10557000759F601B710B6D327140A0F38FE08D83BE
:10558000CE010E949F2A80E0DF91CF911F910F9161
:1055900008958E3F11F08DE0F2CF81E0F5CF8CBD04
:1055A0009DBD0895CF93DF93EC0180917B0B81111A
:1055B00009C081E080937B0B8091D7199091D81915
:1055C0000E94CF2A60E08C81DF91CF910C94999C4E
:1055D0008F929F92AF92BF92FF920F931F93CF93A0
:1055E000DF93EC01F62E49015A018E81882389F060
:1055F0008F8198859C012F5F3F4F38872F838230A2
:10560000924018F40E94B621F3CFCE010E949F2A47
:105610001E82CE010E94D22A8CE291E00E94819FDC
:105620008F2D80640E94001508E110E0D501C401AF
:10563000002E04C0B695A795979587950A94D2F742
:105640000E94001508501109083F8FEF180771F7E5
:1056500085E9FF2021F028E087E8F2128FEF0E9411
:10566000001510E00E94B6218A8787FF04C01F3F03
:1056700011F01F5FF7CFDF91CF911F910F91FF9036
:10568000BF90AF909F908F900895CF92DF92EF924E
:10569000FF920F931F93CF93DF93EC016901C80131
:1056A000820F931F8130924048F58E81882371F0DC
:1056B00088819981AA81BB8184179507A607B707BE
:1056C00029F48F819885C816D90670F548835983C7
:1056D0006A837B838B85833039F089E0440F551FC3
:1056E000661F771F8A95D1F79A01AB0161E1CE0160
:1056F0000E94E82A882379F083E08D83CE010E94FE
:105700009F2A80E0DF91CF911F910F91FF90EF9042
:10571000DF90CF900895CE010E94AA2A882371F3CA
:1057200018861F8281E08E838F8198858C159D0558
:1057300040F40E94B6218F819885019698878F83C7
:10574000F3CF6701E00EF11E0E94B621F6018193AE
:105750006F01EE16FF06C1F78F819885080F191F9C
:1057600018870F838985882319F001151240A0F04E
:105770008E81882389F08F8198859C012F5F3F4F10
:1057800038872F838230924018F40E94B621F3CFDD
:10579000CE010E949F2A1E8281E0B4CFCF92DF9279
:1057A000EF92FF920F93CF93DF93EC01690182E1B7
:1057B000411551056105710599F08B85833039F0EC
:1057C00089E0440F551F661F771F8A95D1F79A010C
:1057D000AB0168E1CE010E94E82A882319F084E039
:1057E0008D832DC08EEF0E94001576018EEFD81AA2
:1057F000F70181917F010E940015EC14FD04C1F7AF
:105800008FEF0E9400158FEF0E9400150E94B621B5
:105810008A878F71853071F4011116C0CE010E9404
:105820009F2A81E0DF91CF910F91FF90EF90DF9061
:10583000CF90089581E18D83CE010E949F2ACE01F1
:105840000E949F2A80E0EECF88E592E00E94819F2F
:10585000811102C085E1C4CF20E030E0A9016DE0F4
:10586000CE010E94E82A882311F084E1B9CF0E947A
:10587000B6218111FACFD2CF0F9340917D0B509179
:105880007E0B60917F0B7091800B41155105610576
:10589000710599F0082F2EE936E18091810B9091E6
:1058A000820B0E94CE2B882349F010927D0B109220
:1058B0007E0B10927F0B1092800B81E00F91089568
:1058C0000F93CF93C82F80917C0B811105C0C1E04D
:1058D0008C2FCF910F91089540911602509117028D
:1058E00060911802709119020C2F2EE936E1809117
:1058F000810B9091820B0E94CE2B811102C0C0E0DF
:10590000E7CFCC2321F381E00E943C2C8823B9F31C
:1059100010927C0BDDCF8F929F92AF92BF92EF924D
:10592000FF920F931F93CF934B015C01C42F809183
:10593000160290911702A0911802B09119028815D1
:105940009905AA05BB0551F181E00E94602C8111E7
:105950000BC080E0CF911F910F91FF90EF90BF900F
:10596000AF909F908F9008958EE9E82E86E1F82EF3
:1059700000E012E030E020E0B501A4018091810B4D
:105980009091820B0E94452B882319F38092160276
:1059900090921702A0921802B092190240917C0BCB
:1059A0004C2B40937C0B81E0D5CF8F929F92AF928E
:1059B000BF92CF92DF92EF92FF920F931F93CF93FC
:1059C000DF93EC017093820B6093810B442309F405
:1059D0006AC040E060E070E0CB010E948B2C811136
:1059E0000EC080E0DF91CF911F910F91FF90EF905B
:1059F000DF90CF90BF90AF909F908F90089580914F
:105A00005C188F7771F78091681890916918A09150
:105A10006A18B0916B1884369105A105B10508F399
:105A2000C0906418D0906518E0906618F0906718E0
:105A3000C114D104E104F104A1F240E0C701B601B0
:105A40000E948B2C882369F28091A9169091AA1646
:105A50008115924031F69091AE16992311F2209162
:105A6000AC163091AD16232B09F4BBCF8091AB1649
:105A7000882309F4B6CF9A8B8C831D8690E041E091
:105A800050E02D85E22FBA01022E02C0660F771F6B
:105A90000A94E2F78617970751F031E0320F3D87FD
:105AA000283078F39ECFC12CD12C7601C6CF20911F
:105AB000B4163091B51650E040E02115310541F49F
:105AC0002091C2163091C3164091C4165091C5164C
:105AD0002D833E834F8358878091AC169091AD16ED
